{
  "_format": "hh-sol-artifact-1",
  "contractName": "DWCT",
  "sourceName": "contracts/MyContracts..sol",
  "abi": [
    {
      "inputs": [
        {
          "internalType": "address",
          "name": "",
          "type": "address"
        }
      ],
      "name": "balance",
      "outputs": [
        {
          "internalType": "uint256",
          "name": "",
          "type": "uint256"
        }
      ],
      "stateMutability": "view",
      "type": "function"
    },
    {
      "inputs": [],
      "name": "deposit",
      "outputs": [],
      "stateMutability": "payable",
      "type": "function"
    },
    {
      "inputs": [],
      "name": "getBalance",
      "outputs": [
        {
          "internalType": "uint256",
          "name": "",
          "type": "uint256"
        }
      ],
      "stateMutability": "view",
      "type": "function"
    },
    {
      "inputs": [
        {
          "internalType": "uint256",
          "name": "_amount",
          "type": "uint256"
        }
      ],
      "name": "withdraw",
      "outputs": [],
      "stateMutability": "nonpayable",
      "type": "function"
    }
  ],
  "bytecode": "0x6080604052348015600f57600080fd5b506104dd8061001f6000396000f3fe60806040526004361061003f5760003560e01c806312065fe0146100445780632e1a7d4d1461006f578063d0e30db014610098578063e3d670d7146100a2575b600080fd5b34801561005057600080fd5b506100596100df565b604051610066919061028f565b60405180910390f35b34801561007b57600080fd5b50610096600480360381019061009191906102db565b6100e7565b005b6100a0610207565b005b3480156100ae57600080fd5b506100c960048036038101906100c49190610366565b61025e565b6040516100d6919061028f565b60405180910390f35b600047905090565b806000803373ffffffffffffffffffffffffffffffffffffffff1673ffffffffffffffffffffffffffffffffffffffff168152602001908152602001600020541015610168576040517f08c379a000000000000000000000000000000000000000000000000000000000815260040161015f906103f0565b60405180910390fd5b806000803373ffffffffffffffffffffffffffffffffffffffff1673ffffffffffffffffffffffffffffffffffffffff16815260200190815260200160002060008282546101b6919061043f565b925050819055503373ffffffffffffffffffffffffffffffffffffffff166108fc829081150290604051600060405180830381858888f19350505050158015610203573d6000803e3d6000fd5b5050565b346000803373ffffffffffffffffffffffffffffffffffffffff1673ffffffffffffffffffffffffffffffffffffffff16815260200190815260200160002060008282546102559190610473565b92505081905550565b60006020528060005260406000206000915090505481565b6000819050919050565b61028981610276565b82525050565b60006020820190506102a46000830184610280565b92915050565b600080fd5b6102b881610276565b81146102c357600080fd5b50565b6000813590506102d5816102af565b92915050565b6000602082840312156102f1576102f06102aa565b5b60006102ff848285016102c6565b91505092915050565b600073ffffffffffffffffffffffffffffffffffffffff82169050919050565b600061033382610308565b9050919050565b61034381610328565b811461034e57600080fd5b50565b6000813590506103608161033a565b92915050565b60006020828403121561037c5761037b6102aa565b5b600061038a84828501610351565b91505092915050565b600082825260208201905092915050565b7f496e73756666696369656e742062616c616e6365000000000000000000000000600082015250565b60006103da601483610393565b91506103e5826103a4565b602082019050919050565b60006020820190508181036000830152610409816103cd565b9050919050565b7f4e487b7100000000000000000000000000000000000000000000000000000000600052601160045260246000fd5b600061044a82610276565b915061045583610276565b925082820390508181111561046d5761046c610410565b5b92915050565b600061047e82610276565b915061048983610276565b92508282019050808211156104a1576104a0610410565b5b9291505056fea264697066735822122083bbde32b5ba386f55599452e75d93f7b68b77da4ef0a89626de3e8abc20239c64736f6c634300081b0033",
  "linkReferences": {},
  "deployedLinkReferences": {}
}